{
  "address": "0xe7f1725E7734CE288F8367e1Bb143E90bb3F0512",
  "abi": [
    {
      "inputs": [
        {
          "internalType": "contract IComp",
          "name": "_adapted",
          "type": "address"
        }
      ],
      "stateMutability": "nonpayable",
      "type": "constructor"
    },
    {
      "inputs": [],
      "name": "adapted",
      "outputs": [
        {
          "internalType": "contract IComp",
          "name": "",
          "type": "address"
        }
      ],
      "stateMutability": "view",
      "type": "function"
    },
    {
      "inputs": [
        {
          "internalType": "address",
          "name": "account",
          "type": "address"
        },
        {
          "internalType": "uint256",
          "name": "blockNumber",
          "type": "uint256"
        }
      ],
      "name": "balanceOfAt",
      "outputs": [
        {
          "internalType": "uint96",
          "name": "",
          "type": "uint96"
        }
      ],
      "stateMutability": "view",
      "type": "function"
    },
    {
      "inputs": [
        {
          "internalType": "uint256",
          "name": "blockNumber",
          "type": "uint256"
        }
      ],
      "name": "totalSupplyAt",
      "outputs": [
        {
          "internalType": "uint256",
          "name": "",
          "type": "uint256"
        }
      ],
      "stateMutability": "view",
      "type": "function"
    }
  ],
  "transactionHash": "0xab0e59e59e47fcda1f480607612f27c7d439519a9f1f559bd9c6dc9744f32ce8",
  "args": [
    "0x5FbDB2315678afecb367f032d93F642f64180aa3"
  ],
  "solcInputHash": "2b79b106deed45f973e0f9fa1ff39c6e",
  "bytecode": "0x608060405234801561001057600080fd5b5060405161039a38038061039a8339818101604052602081101561003357600080fd5b8101908080519060200190929190505050806000806101000a81548173ffffffffffffffffffffffffffffffffffffffff021916908373ffffffffffffffffffffffffffffffffffffffff16021790555050610306806100946000396000f3fe608060405234801561001057600080fd5b50600436106100415760003560e01c80634ee2cd7e14610046578063981b24d0146100b6578063b46997bc146100f8575b600080fd5b6100926004803603604081101561005c57600080fd5b81019080803573ffffffffffffffffffffffffffffffffffffffff1690602001909291908035906020019092919050505061012c565b60405180826bffffffffffffffffffffffff16815260200191505060405180910390f35b6100e2600480360360208110156100cc57600080fd5b8101908080359060200190929190505050610201565b6040518082815260200191505060405180910390f35b6101006102ac565b604051808273ffffffffffffffffffffffffffffffffffffffff16815260200191505060405180910390f35b60008060009054906101000a900473ffffffffffffffffffffffffffffffffffffffff1673ffffffffffffffffffffffffffffffffffffffff1663782d6fe184846040518363ffffffff1660e01b8152600401808373ffffffffffffffffffffffffffffffffffffffff1681526020018281526020019250505060206040518083038186803b1580156101be57600080fd5b505afa1580156101d2573d6000803e3d6000fd5b505050506040513d60208110156101e857600080fd5b8101908080519060200190929190505050905092915050565b60008060009054906101000a900473ffffffffffffffffffffffffffffffffffffffff1673ffffffffffffffffffffffffffffffffffffffff166318160ddd6040518163ffffffff1660e01b815260040160206040518083038186803b15801561026a57600080fd5b505afa15801561027e573d6000803e3d6000fd5b505050506040513d602081101561029457600080fd5b81019080805190602001909291905050509050919050565b60008054906101000a900473ffffffffffffffffffffffffffffffffffffffff168156fea2646970667358221220b6ceb2a905b11bce3f17faf518ac79aeba02813924b68815f402043260580f0c64736f6c63430007030033",
  "devdoc": {
    "kind": "dev",
    "methods": {},
    "version": 1
  },
  "userdoc": {
    "kind": "user",
    "methods": {},
    "version": 1
  },
  "storageLayout": {
    "storage": [
      {
        "astId": 3470,
        "contract": "contracts/tokenAdaptors/CompAdaptor.sol:CompAdaptor",
        "label": "adapted",
        "offset": 0,
        "slot": "0",
        "type": "t_contract(IComp)3466"
      }
    ],
    "types": {
      "t_contract(IComp)3466": {
        "encoding": "inplace",
        "label": "contract IComp",
        "numberOfBytes": "20"
      }
    }
  }
}