{
  "address": "0x610178dA211FEF7D417bC0e6FeD39F05609AD788",
  "abi": [
    {
      "inputs": [
        {
          "internalType": "address",
          "name": "safe_",
          "type": "address"
        },
        {
          "internalType": "address",
          "name": "token_",
          "type": "address"
        },
        {
          "internalType": "enum DecisionEngine01.TokenType",
          "name": "tokenType_",
          "type": "uint8"
        },
        {
          "internalType": "uint256",
          "name": "proposalThreshold_",
          "type": "uint256"
        },
        {
          "internalType": "uint256",
          "name": "quorumVotes_",
          "type": "uint256"
        },
        {
          "internalType": "uint256",
          "name": "votingPeriod_",
          "type": "uint256"
        },
        {
          "internalType": "uint256",
          "name": "proposalMaxOperations_",
          "type": "uint256"
        }
      ],
      "stateMutability": "nonpayable",
      "type": "constructor"
    },
    {
      "anonymous": false,
      "inputs": [
        {
          "indexed": false,
          "internalType": "uint256",
          "name": "id",
          "type": "uint256"
        }
      ],
      "name": "ProposalCanceled",
      "type": "event"
    },
    {
      "anonymous": false,
      "inputs": [
        {
          "indexed": false,
          "internalType": "uint256",
          "name": "id",
          "type": "uint256"
        },
        {
          "indexed": false,
          "internalType": "address",
          "name": "proposer",
          "type": "address"
        },
        {
          "indexed": false,
          "internalType": "address[]",
          "name": "targets",
          "type": "address[]"
        },
        {
          "indexed": false,
          "internalType": "uint256[]",
          "name": "values",
          "type": "uint256[]"
        },
        {
          "indexed": false,
          "internalType": "string[]",
          "name": "signatures",
          "type": "string[]"
        },
        {
          "indexed": false,
          "internalType": "bytes[]",
          "name": "calldatas",
          "type": "bytes[]"
        },
        {
          "indexed": false,
          "internalType": "uint256",
          "name": "startBlock",
          "type": "uint256"
        },
        {
          "indexed": false,
          "internalType": "uint256",
          "name": "endBlock",
          "type": "uint256"
        },
        {
          "indexed": false,
          "internalType": "string",
          "name": "description",
          "type": "string"
        },
        {
          "indexed": false,
          "internalType": "uint256",
          "name": "snapshotId",
          "type": "uint256"
        }
      ],
      "name": "ProposalCreated",
      "type": "event"
    },
    {
      "anonymous": false,
      "inputs": [
        {
          "indexed": false,
          "internalType": "uint256",
          "name": "id",
          "type": "uint256"
        }
      ],
      "name": "ProposalExecuted",
      "type": "event"
    },
    {
      "anonymous": false,
      "inputs": [
        {
          "indexed": false,
          "internalType": "uint256",
          "name": "id",
          "type": "uint256"
        },
        {
          "indexed": false,
          "internalType": "uint256",
          "name": "eta",
          "type": "uint256"
        }
      ],
      "name": "ProposalQueued",
      "type": "event"
    },
    {
      "anonymous": false,
      "inputs": [
        {
          "indexed": false,
          "internalType": "address",
          "name": "voter",
          "type": "address"
        },
        {
          "indexed": false,
          "internalType": "uint256",
          "name": "proposalId",
          "type": "uint256"
        },
        {
          "indexed": false,
          "internalType": "bool",
          "name": "support",
          "type": "bool"
        },
        {
          "indexed": false,
          "internalType": "uint256",
          "name": "votes",
          "type": "uint256"
        }
      ],
      "name": "VoteCast",
      "type": "event"
    },
    {
      "inputs": [],
      "name": "BALLOT_TYPEHASH",
      "outputs": [
        {
          "internalType": "bytes32",
          "name": "",
          "type": "bytes32"
        }
      ],
      "stateMutability": "view",
      "type": "function"
    },
    {
      "inputs": [],
      "name": "DOMAIN_TYPEHASH",
      "outputs": [
        {
          "internalType": "bytes32",
          "name": "",
          "type": "bytes32"
        }
      ],
      "stateMutability": "view",
      "type": "function"
    },
    {
      "inputs": [],
      "name": "NAME",
      "outputs": [
        {
          "internalType": "string",
          "name": "",
          "type": "string"
        }
      ],
      "stateMutability": "view",
      "type": "function"
    },
    {
      "inputs": [
        {
          "internalType": "uint256",
          "name": "proposalId",
          "type": "uint256"
        }
      ],
      "name": "approveHash",
      "outputs": [],
      "stateMutability": "payable",
      "type": "function"
    },
    {
      "inputs": [
        {
          "internalType": "uint256",
          "name": "proposalId",
          "type": "uint256"
        },
        {
          "internalType": "bool",
          "name": "support",
          "type": "bool"
        }
      ],
      "name": "castVote",
      "outputs": [],
      "stateMutability": "nonpayable",
      "type": "function"
    },
    {
      "inputs": [
        {
          "internalType": "uint256",
          "name": "proposalId",
          "type": "uint256"
        },
        {
          "internalType": "bool",
          "name": "support",
          "type": "bool"
        },
        {
          "internalType": "uint8",
          "name": "v",
          "type": "uint8"
        },
        {
          "internalType": "bytes32",
          "name": "r",
          "type": "bytes32"
        },
        {
          "internalType": "bytes32",
          "name": "s",
          "type": "bytes32"
        }
      ],
      "name": "castVoteBySig",
      "outputs": [],
      "stateMutability": "nonpayable",
      "type": "function"
    },
    {
      "inputs": [
        {
          "internalType": "uint256",
          "name": "proposalId",
          "type": "uint256"
        }
      ],
      "name": "execute",
      "outputs": [],
      "stateMutability": "payable",
      "type": "function"
    },
    {
      "inputs": [
        {
          "internalType": "uint256",
          "name": "proposalId",
          "type": "uint256"
        }
      ],
      "name": "getActions",
      "outputs": [
        {
          "internalType": "address[]",
          "name": "targets",
          "type": "address[]"
        },
        {
          "internalType": "uint256[]",
          "name": "values",
          "type": "uint256[]"
        },
        {
          "internalType": "bytes[]",
          "name": "calldatas",
          "type": "bytes[]"
        }
      ],
      "stateMutability": "view",
      "type": "function"
    },
    {
      "inputs": [
        {
          "internalType": "uint256",
          "name": "proposalId",
          "type": "uint256"
        },
        {
          "internalType": "address",
          "name": "voter",
          "type": "address"
        }
      ],
      "name": "getReceipt",
      "outputs": [
        {
          "components": [
            {
              "internalType": "bool",
              "name": "hasVoted",
              "type": "bool"
            },
            {
              "internalType": "bool",
              "name": "support",
              "type": "bool"
            },
            {
              "internalType": "uint256",
              "name": "votes",
              "type": "uint256"
            }
          ],
          "internalType": "struct DecisionEngine01.Receipt",
          "name": "",
          "type": "tuple"
        }
      ],
      "stateMutability": "view",
      "type": "function"
    },
    {
      "inputs": [
        {
          "internalType": "address",
          "name": "",
          "type": "address"
        }
      ],
      "name": "latestProposalIds",
      "outputs": [
        {
          "internalType": "uint256",
          "name": "",
          "type": "uint256"
        }
      ],
      "stateMutability": "view",
      "type": "function"
    },
    {
      "inputs": [],
      "name": "proposalCount",
      "outputs": [
        {
          "internalType": "uint256",
          "name": "",
          "type": "uint256"
        }
      ],
      "stateMutability": "view",
      "type": "function"
    },
    {
      "inputs": [],
      "name": "proposalMaxOperations",
      "outputs": [
        {
          "internalType": "uint256",
          "name": "",
          "type": "uint256"
        }
      ],
      "stateMutability": "view",
      "type": "function"
    },
    {
      "inputs": [],
      "name": "proposalThreshold",
      "outputs": [
        {
          "internalType": "uint256",
          "name": "",
          "type": "uint256"
        }
      ],
      "stateMutability": "view",
      "type": "function"
    },
    {
      "inputs": [
        {
          "internalType": "uint256",
          "name": "",
          "type": "uint256"
        }
      ],
      "name": "proposals",
      "outputs": [
        {
          "internalType": "uint256",
          "name": "id",
          "type": "uint256"
        },
        {
          "internalType": "address",
          "name": "proposer",
          "type": "address"
        },
        {
          "internalType": "uint256",
          "name": "eta",
          "type": "uint256"
        },
        {
          "internalType": "uint256",
          "name": "startBlock",
          "type": "uint256"
        },
        {
          "internalType": "uint256",
          "name": "endBlock",
          "type": "uint256"
        },
        {
          "internalType": "uint256",
          "name": "forVotes",
          "type": "uint256"
        },
        {
          "internalType": "uint256",
          "name": "againstVotes",
          "type": "uint256"
        },
        {
          "internalType": "bool",
          "name": "canceled",
          "type": "bool"
        },
        {
          "internalType": "bool",
          "name": "executed",
          "type": "bool"
        },
        {
          "internalType": "uint256",
          "name": "snapshotId",
          "type": "uint256"
        }
      ],
      "stateMutability": "view",
      "type": "function"
    },
    {
      "inputs": [
        {
          "internalType": "address[]",
          "name": "targets",
          "type": "address[]"
        },
        {
          "internalType": "uint256[]",
          "name": "values",
          "type": "uint256[]"
        },
        {
          "internalType": "string[]",
          "name": "signatures",
          "type": "string[]"
        },
        {
          "internalType": "bytes[]",
          "name": "calldatas",
          "type": "bytes[]"
        },
        {
          "internalType": "string",
          "name": "description",
          "type": "string"
        }
      ],
      "name": "propose",
      "outputs": [
        {
          "internalType": "uint256",
          "name": "",
          "type": "uint256"
        }
      ],
      "stateMutability": "nonpayable",
      "type": "function"
    },
    {
      "inputs": [],
      "name": "quorumVotes",
      "outputs": [
        {
          "internalType": "uint256",
          "name": "",
          "type": "uint256"
        }
      ],
      "stateMutability": "view",
      "type": "function"
    },
    {
      "inputs": [
        {
          "internalType": "uint256",
          "name": "",
          "type": "uint256"
        },
        {
          "internalType": "address",
          "name": "",
          "type": "address"
        }
      ],
      "name": "receipts",
      "outputs": [
        {
          "internalType": "bool",
          "name": "hasVoted",
          "type": "bool"
        },
        {
          "internalType": "bool",
          "name": "support",
          "type": "bool"
        },
        {
          "internalType": "uint256",
          "name": "votes",
          "type": "uint256"
        }
      ],
      "stateMutability": "view",
      "type": "function"
    },
    {
      "inputs": [],
      "name": "safe",
      "outputs": [
        {
          "internalType": "contract IGnosisSafe",
          "name": "",
          "type": "address"
        }
      ],
      "stateMutability": "view",
      "type": "function"
    },
    {
      "inputs": [
        {
          "internalType": "uint256",
          "name": "proposalId",
          "type": "uint256"
        }
      ],
      "name": "state",
      "outputs": [
        {
          "internalType": "enum DecisionEngine01.ProposalState",
          "name": "",
          "type": "uint8"
        }
      ],
      "stateMutability": "view",
      "type": "function"
    },
    {
      "inputs": [],
      "name": "token",
      "outputs": [
        {
          "internalType": "address",
          "name": "",
          "type": "address"
        }
      ],
      "stateMutability": "view",
      "type": "function"
    },
    {
      "inputs": [],
      "name": "tokenType",
      "outputs": [
        {
          "internalType": "enum DecisionEngine01.TokenType",
          "name": "",
          "type": "uint8"
        }
      ],
      "stateMutability": "view",
      "type": "function"
    },
    {
      "inputs": [],
      "name": "votingDelay",
      "outputs": [
        {
          "internalType": "uint256",
          "name": "",
          "type": "uint256"
        }
      ],
      "stateMutability": "view",
      "type": "function"
    },
    {
      "inputs": [],
      "name": "votingPeriod",
      "outputs": [
        {
          "internalType": "uint256",
          "name": "",
          "type": "uint256"
        }
      ],
      "stateMutability": "view",
      "type": "function"
    }
  ],
  "transactionHash": "0x02da5dcefec30d121e4c87550604a95e11f19df7c51cbfd4d7a2428e09cc7d0c",
  "args": [
    "0xe7f1725E7734CE288F8367e1Bb143E90bb3F0512",
    "0x8A791620dd6260079BF849Dc5567aDC3F2FdC318",
    0,
    10,
    4,
    10,
    10
  ],
  "solcInputHash": "e5e6e4d44fdae0f0505ee0871e7e7189",
  "bytecode": "0x608060405260016003553480156200001657600080fd5b50604051620044d0380380620044d083398181016040528101906200003c919062000150565b86600560006101000a81548173ffffffffffffffffffffffffffffffffffffffff021916908373ffffffffffffffffffffffffffffffffffffffff16021790555084600660146101000a81548160ff021916908360018111156200009c57fe5b021790555085600660006101000a81548173ffffffffffffffffffffffffffffffffffffffff021916908373ffffffffffffffffffffffffffffffffffffffff160217905550836001819055508260008190555081600481905550806002819055505050505050505062000280565b6000815190506200011c816200023b565b92915050565b600081519050620001338162000255565b92915050565b6000815190506200014a8162000266565b92915050565b600080600080600080600060e0888a0312156200016c57600080fd5b60006200017c8a828b016200010b565b97505060206200018f8a828b016200010b565b9650506040620001a28a828b0162000122565b9550506060620001b58a828b0162000139565b9450506080620001c88a828b0162000139565b93505060a0620001db8a828b0162000139565b92505060c0620001ee8a828b0162000139565b91505092959891949750929550565b60006200020a8262000211565b9050919050565b600073ffffffffffffffffffffffffffffffffffffffff82169050919050565b6000819050919050565b6200024681620001fd565b81146200025257600080fd5b50565b600281106200026357600080fd5b50565b620002718162000231565b81146200027d57600080fd5b50565b61424080620002906000396000f3fe6080604052600436106101405760003560e01c80634178b249116100b6578063da35c6641161006f578063da35c66414610474578063da95691a1461049f578063deaaa7cc146104dc578063e23a9a5214610507578063fc0c546a14610544578063fe0d94c11461056f57610140565b80634178b2491461036f5780634634c61f146103ae57806346932ee5146103d75780637bdbe4d0146103f3578063a3f4df7e1461041e578063b58131b01461044957610140565b806320606b701161010857806320606b701461024757806324bc1a641461027257806330fa738c1461029d578063328dd982146102c85780633932abb1146103075780633e4f49e61461033257610140565b8063013cf08b1461014557806302a251a31461018b57806315373e3d146101b657806317977c61146101df578063186f03541461021c575b600080fd5b34801561015157600080fd5b5061016c600480360381019061016791906125e7565b61058b565b6040516101829a99989796959493929190613b3e565b60405180910390f35b34801561019757600080fd5b506101a0610619565b6040516101ad9190613a64565b60405180910390f35b3480156101c257600080fd5b506101dd60048036038101906101d89190612675565b61061f565b005b3480156101eb57600080fd5b50610206600480360381019061020191906124a6565b61062e565b6040516102139190613a64565b60405180910390f35b34801561022857600080fd5b50610231610646565b60405161023e91906137b6565b60405180910390f35b34801561025357600080fd5b5061025c61066c565b60405161026991906136da565b60405180910390f35b34801561027e57600080fd5b50610287610690565b6040516102949190613a64565b60405180910390f35b3480156102a957600080fd5b506102b2610696565b6040516102bf91906137ec565b60405180910390f35b3480156102d457600080fd5b506102ef60048036038101906102ea91906125e7565b6106a9565b6040516102fe93929190613657565b60405180910390f35b34801561031357600080fd5b5061031c61089c565b6040516103299190613a64565b60405180910390f35b34801561033e57600080fd5b50610359600480360381019061035491906125e7565b6108a6565b60405161036691906137d1565b60405180910390f35b34801561037b57600080fd5b5061039660048036038101906103919190612639565b6109eb565b6040516103a5939291906136a3565b60405180910390f35b3480156103ba57600080fd5b506103d560048036038101906103d091906126b1565b610a3c565b005b6103f160048036038101906103ec91906125e7565b610c08565b005b3480156103ff57600080fd5b50610408610d78565b6040516104159190613a64565b60405180910390f35b34801561042a57600080fd5b50610433610d7e565b6040516104409190613807565b60405180910390f35b34801561045557600080fd5b5061045e610d9a565b60405161046b9190613a64565b60405180910390f35b34801561048057600080fd5b50610489610da0565b6040516104969190613a64565b60405180910390f35b3480156104ab57600080fd5b506104c660048036038101906104c191906124cf565b610da6565b6040516104d39190613a64565b60405180910390f35b3480156104e857600080fd5b506104f161152f565b6040516104fe91906136da565b60405180910390f35b34801561051357600080fd5b5061052e60048036038101906105299190612639565b611553565b60405161053b9190613a49565b60405180910390f35b34801561055057600080fd5b506105596115fe565b60405161056691906134fb565b60405180910390f35b610589600480360381019061058491906125e7565b611624565b005b60086020528060005260406000206000915090508060000154908060010160009054906101000a900473ffffffffffffffffffffffffffffffffffffffff169080600201549080600701549080600801549080600901549080600a01549080600b0160009054906101000a900460ff169080600b0160019054906101000a900460ff169080600c015490508a565b60045481565b61062a33838361190c565b5050565b600a6020528060005260406000206000915090505481565b600560009054906101000a900473ffffffffffffffffffffffffffffffffffffffff1681565b7f8cad95687ba82c2ce50e74f7b754645e5117c3a5bec8151c0726d5857980a86681565b60005481565b600660149054906101000a900460ff1681565b606080606060006008600086815260200190815260200160002090508060030181600401826006018280548060200260200160405190810160405280929190818152602001828054801561075257602002820191906000526020600020905b8160009054906101000a900473ffffffffffffffffffffffffffffffffffffffff1673ffffffffffffffffffffffffffffffffffffffff1681526020019060010190808311610708575b50505050509250818054806020026020016040519081016040528092919081815260200182805480156107a457602002820191906000526020600020905b815481526020019060010190808311610790575b5050505050915080805480602002602001604051908101604052809291908181526020016000905b82821015610888578382906000526020600020018054600181600116156101000203166002900480601f0160208091040260200160405190810160405280929190818152602001828054600181600116156101000203166002900480156108745780601f1061084957610100808354040283529160200191610874565b820191906000526020600020905b81548152906001019060200180831161085757829003601f168201915b5050505050815260200190600101906107cc565b505050509050935093509350509193909250565b6000600354905090565b600081600754101580156108ba5750600082115b6108f9576040517f08c379a00000000000000000000000000000000000000000000000000000000081526004016108f090613849565b60405180910390fd5b600060086000848152602001908152602001600020905080600b0160009054906101000a900460ff16156109315760029150506109e6565b806007015443116109465760009150506109e6565b8060080154431161095b5760019150506109e6565b80600a01548160090154111580610984575060005461098282600901548360070154611bc4565b105b156109935760039150506109e6565b6000816002015414156109aa5760049150506109e6565b80600b0160019054906101000a900460ff16156109cb5760079150506109e6565b806002015442106109e05760069150506109e6565b60059150505b919050565b6009602052816000526040600020602052806000526040600020600091509150508060000160009054906101000a900460ff16908060000160019054906101000a900460ff16908060010154905083565b60007f8cad95687ba82c2ce50e74f7b754645e5117c3a5bec8151c0726d5857980a8666040518060600160405280602c81526020016141df602c913980519060200120610a87611c06565b30604051602001610a9b94939291906136f5565b60405160208183030381529060405280519060200120905060007f8e25870c07e0b0b3884c78da52790939a455c275406c44ae8b434b692fb916ee8787604051602001610aea9392919061373a565b60405160208183030381529060405280519060200120905060008282604051602001610b179291906134c4565b604051602081830303815290604052805190602001209050600060018288888860405160008152602001604052604051610b549493929190613771565b6020604051602081039080840390855afa158015610b76573d6000803e3d6000fd5b505050602060405103519050600073ffffffffffffffffffffffffffffffffffffffff168173ffffffffffffffffffffffffffffffffffffffff161415610bf2576040517f08c379a0000000000000000000000000000000000000000000000000000000008152600401610be9906139c9565b60405180910390fd5b610bfd818a8a61190c565b505050505050505050565b60046007811115610c1557fe5b610c1e826108a6565b6007811115610c2957fe5b14610c69576040517f08c379a0000000000000000000000000000000000000000000000000000000008152600401610c6090613a09565b60405180910390fd5b6000610caa576040517f08c379a0000000000000000000000000000000000000000000000000000000008152600401610ca190613929565b60405180910390fd5b600060086000838152602001908152602001600020905060007f89232e6dba5a1949e493f5034fcd46db3c1ee01386363067973d7739bc50b63e9050600560009054906101000a900473ffffffffffffffffffffffffffffffffffffffff1673ffffffffffffffffffffffffffffffffffffffff1663d4d9bdcd826040518263ffffffff1660e01b8152600401610d4191906136da565b600060405180830381600087803b158015610d5b57600080fd5b505af1158015610d6f573d6000803e3d6000fd5b50505050505050565b60025481565b6040518060600160405280602c81526020016141df602c913981565b60015481565b60075481565b600080610dc3610db461089c565b43611c1390919063ffffffff16565b90506000610ddc60045483611c1390919063ffffffff16565b90506000806001811115610dec57fe5b600660149054906101000a900460ff166001811115610e0757fe5b1415610e1557439050610ee8565b600180811115610e2157fe5b600660149054906101000a900460ff166001811115610e3c57fe5b1415610ee757600660009054906101000a900473ffffffffffffffffffffffffffffffffffffffff1673ffffffffffffffffffffffffffffffffffffffff16639711715a6040518163ffffffff1660e01b8152600401602060405180830381600087803b158015610eac57600080fd5b505af1158015610ec0573d6000803e3d6000fd5b505050506040513d601f19601f82011682018060405250810190610ee49190612610565b90505b5b600154611059600660009054906101000a900473ffffffffffffffffffffffffffffffffffffffff1673ffffffffffffffffffffffffffffffffffffffff16634ee2cd7e33856040518363ffffffff1660e01b8152600401610f4b929190613516565b60206040518083038186803b158015610f6357600080fd5b505afa158015610f77573d6000803e3d6000fd5b505050506040513d601f19601f82011682018060405250810190610f9b9190612728565b6bffffffffffffffffffffffff16600660009054906101000a900473ffffffffffffffffffffffffffffffffffffffff1673ffffffffffffffffffffffffffffffffffffffff1663981b24d0856040518263ffffffff1660e01b81526004016110049190613a64565b60206040518083038186803b15801561101c57600080fd5b505afa158015611030573d6000803e3d6000fd5b505050506040513d601f19601f820116820180604052508101906110549190612610565b611bc4565b11611099576040517f08c379a0000000000000000000000000000000000000000000000000000000008152600401611090906139a9565b60405180910390fd5b875189511480156110ab575085518951145b6110ea576040517f08c379a00000000000000000000000000000000000000000000000000000000081526004016110e190613949565b60405180910390fd5b60008951141561112f576040517f08c379a000000000000000000000000000000000000000000000000000000000815260040161112690613989565b60405180910390fd5b60025489511115611175576040517f08c379a000000000000000000000000000000000000000000000000000000000815260040161116c906138c9565b60405180910390fd5b6000600a60003373ffffffffffffffffffffffffffffffffffffffff1673ffffffffffffffffffffffffffffffffffffffff168152602001908152602001600020549050600081146112845760006111cc826108a6565b9050600160078111156111db57fe5b8160078111156111e757fe5b1415611228576040517f08c379a000000000000000000000000000000000000000000000000000000000815260040161121f906139e9565b60405180910390fd5b6000600781111561123557fe5b81600781111561124157fe5b1415611282576040517f08c379a0000000000000000000000000000000000000000000000000000000008152600401611279906138a9565b60405180910390fd5b505b60076000815480929190600101919050555061129e611d2e565b604051806101c0016040528060075481526020013373ffffffffffffffffffffffffffffffffffffffff168152602001600081526020018c81526020018b81526020018a815260200189815260200186815260200185815260200160008152602001600081526020016000151581526020016000151581526020018481525090508060086000836000015181526020019081526020016000206000820151816000015560208201518160010160006101000a81548173ffffffffffffffffffffffffffffffffffffffff021916908373ffffffffffffffffffffffffffffffffffffffff1602179055506040820151816002015560608201518160030190805190602001906113ae929190611db7565b5060808201518160040190805190602001906113cb929190611e41565b5060a08201518160050190805190602001906113e8929190611e8e565b5060c0820151816006019080519060200190611405929190611eee565b5060e082015181600701556101008201518160080155610120820151816009015561014082015181600a015561016082015181600b0160006101000a81548160ff02191690831515021790555061018082015181600b0160016101000a81548160ff0219169083151502179055506101a082015181600c01559050508060000151600a6000836020015173ffffffffffffffffffffffffffffffffffffffff1673ffffffffffffffffffffffffffffffffffffffff168152602001908152602001600020819055507fb822896d940636d634030a124c95006ad3a3008e5734f511df0d5c418b20c9d08160000151338d8d8d8d8b8b8f8c6040516115129a99989796959493929190613a7f565b60405180910390a180600001519550505050505095945050505050565b7f8e25870c07e0b0b3884c78da52790939a455c275406c44ae8b434b692fb916ee81565b61155b611f4e565b6009600084815260200190815260200160002060008373ffffffffffffffffffffffffffffffffffffffff1673ffffffffffffffffffffffffffffffffffffffff1681526020019081526020016000206040518060600160405290816000820160009054906101000a900460ff161515151581526020016000820160019054906101000a900460ff16151515158152602001600182015481525050905092915050565b600660009054906101000a900473ffffffffffffffffffffffffffffffffffffffff1681565b6004600781111561163157fe5b61163a826108a6565b600781111561164557fe5b14611685576040517f08c379a000000000000000000000000000000000000000000000000000000000815260040161167c906138e9565b60405180910390fd5b6000600860008381526020019081526020016000209050600181600b0160016101000a81548160ff0219169083151502179055506060600060a01b306000801b60016040516020016116da9493929190613437565b604051602081830303815290604052905060005b82600301805490508110156118cf57606083600501828154811061170e57fe5b9060005260206000200160405161172591906134ad565b604051809103902084600601838154811061173c57fe5b90600052602060002001604051602001611757929190613485565b60405160208183030381529060405290506000600560009054906101000a900473ffffffffffffffffffffffffffffffffffffffff1673ffffffffffffffffffffffffffffffffffffffff16636a7612028660030185815481106117b757fe5b9060005260206000200160009054906101000a900473ffffffffffffffffffffffffffffffffffffffff168760040186815481106117f157fe5b9060005260206000200154856000806000806000808e6040518b63ffffffff1660e01b815260040161182c9a999897969594939291906135ad565b602060405180830381600087803b15801561184657600080fd5b505af115801561185a573d6000803e3d6000fd5b505050506040513d601f19601f8201168201806040525081019061187e91906125be565b9050806118c0576040517f08c379a00000000000000000000000000000000000000000000000000000000081526004016118b790613909565b60405180910390fd5b505080806001019150506116ee565b507f712ae1383f79ac853f8d882153778e0260ef8f03b504e2866e0593e04d2b291f836040516118ff9190613a64565b60405180910390a1505050565b6001600781111561191957fe5b611922836108a6565b600781111561192d57fe5b1461196d576040517f08c379a000000000000000000000000000000000000000000000000000000000815260040161196490613a29565b60405180910390fd5b600060086000848152602001908152602001600020905060006009600085815260200190815260200160002060008673ffffffffffffffffffffffffffffffffffffffff1673ffffffffffffffffffffffffffffffffffffffff1681526020019081526020016000209050600015158160000160009054906101000a900460ff16151514611a30576040517f08c379a0000000000000000000000000000000000000000000000000000000008152600401611a2790613869565b60405180910390fd5b6000600660009054906101000a900473ffffffffffffffffffffffffffffffffffffffff1673ffffffffffffffffffffffffffffffffffffffff16634ee2cd7e8785600c01546040518363ffffffff1660e01b8152600401611a9392919061353f565b60206040518083038186803b158015611aab57600080fd5b505afa158015611abf573d6000803e3d6000fd5b505050506040513d601f19601f82011682018060405250810190611ae39190612728565b6bffffffffffffffffffffffff1690508315611b1d57611b10818460090154611c1390919063ffffffff16565b8360090181905550611b3d565b611b348184600a0154611c1390919063ffffffff16565b83600a01819055505b60018260000160006101000a81548160ff021916908315150217905550838260000160016101000a81548160ff0219169083151502179055508082600101819055507f877856338e13f63d0c36822ff0ef736b80934cd90574a3a5bc9262c39d217c4686868684604051611bb49493929190613568565b60405180910390a1505050505050565b600080821415611bd75760009050611c00565b611bfd82611bef606486611c6890919063ffffffff16565b611cd890919063ffffffff16565b90505b92915050565b6000804690508091505090565b600080828401905083811015611c5e576040517f08c379a0000000000000000000000000000000000000000000000000000000008152600401611c5590613829565b60405180910390fd5b8091505092915050565b600080831415611c7b5760009050611cd2565b6000828402905082848281611c8c57fe5b0414611ccd576040517f08c379a0000000000000000000000000000000000000000000000000000000008152600401611cc490613969565b60405180910390fd5b809150505b92915050565b6000808211611d1c576040517f08c379a0000000000000000000000000000000000000000000000000000000008152600401611d1390613889565b60405180910390fd5b818381611d2557fe5b04905092915050565b604051806101c0016040528060008152602001600073ffffffffffffffffffffffffffffffffffffffff168152602001600081526020016060815260200160608152602001606081526020016060815260200160008152602001600081526020016000815260200160008152602001600015158152602001600015158152602001600081525090565b828054828255906000526020600020908101928215611e30579160200282015b82811115611e2f5782518260006101000a81548173ffffffffffffffffffffffffffffffffffffffff021916908373ffffffffffffffffffffffffffffffffffffffff16021790555091602001919060010190611dd7565b5b509050611e3d9190611f73565b5090565b828054828255906000526020600020908101928215611e7d579160200282015b82811115611e7c578251825591602001919060010190611e61565b5b509050611e8a9190611f73565b5090565b828054828255906000526020600020908101928215611edd579160200282015b82811115611edc578251829080519060200190611ecc929190611f90565b5091602001919060010190611eae565b5b509050611eea9190612010565b5090565b828054828255906000526020600020908101928215611f3d579160200282015b82811115611f3c578251829080519060200190611f2c929190612034565b5091602001919060010190611f0e565b5b509050611f4a91906120b4565b5090565b6040518060600160405280600015158152602001600015158152602001600081525090565b5b80821115611f8c576000816000905550600101611f74565b5090565b828054600181600116156101000203166002900490600052602060002090601f016020900481019282601f10611fd157805160ff1916838001178555611fff565b82800160010185558215611fff579182015b82811115611ffe578251825591602001919060010190611fe3565b5b50905061200c9190611f73565b5090565b5b80821115612030576000818161202791906120d8565b50600101612011565b5090565b828054600181600116156101000203166002900490600052602060002090601f016020900481019282601f1061207557805160ff19168380011785556120a3565b828001600101855582156120a3579182015b828111156120a2578251825591602001919060010190612087565b5b5090506120b09190611f73565b5090565b5b808211156120d457600081816120cb9190612120565b506001016120b5565b5090565b50805460018160011615610100020316600290046000825580601f106120fe575061211d565b601f01602090049060005260206000209081019061211c9190611f73565b5b50565b50805460018160011615610100020316600290046000825580601f106121465750612165565b601f0160209004906000526020600020908101906121649190611f73565b5b50565b60008135905061217781614154565b92915050565b600082601f83011261218e57600080fd5b81356121a161219c82613c0b565b613bda565b915081818352602084019350602081019050838560208402820111156121c657600080fd5b60005b838110156121f657816121dc8882612168565b8452602084019350602083019250506001810190506121c9565b5050505092915050565b600082601f83011261221157600080fd5b813561222461221f82613c37565b613bda565b9150818183526020840193506020810190508360005b8381101561226a578135860161225088826123aa565b84526020840193506020830192505060018101905061223a565b5050505092915050565b600082601f83011261228557600080fd5b813561229861229382613c63565b613bda565b9150818183526020840193506020810190508360005b838110156122de57813586016122c488826123fe565b8452602084019350602083019250506001810190506122ae565b5050505092915050565b600082601f8301126122f957600080fd5b813561230c61230782613c8f565b613bda565b9150818183526020840193506020810190508385602084028201111561233157600080fd5b60005b8381101561236157816123478882612452565b845260208401935060208301925050600181019050612334565b5050505092915050565b60008135905061237a8161416b565b92915050565b60008151905061238f8161416b565b92915050565b6000813590506123a481614182565b92915050565b600082601f8301126123bb57600080fd5b81356123ce6123c982613cbb565b613bda565b915080825260208301602083018583830111156123ea57600080fd5b6123f5838284614055565b50505092915050565b600082601f83011261240f57600080fd5b813561242261241d82613ceb565b613bda565b9150808252602083016020830185838301111561243e57600080fd5b612449838284614055565b50505092915050565b60008135905061246181614199565b92915050565b60008151905061247681614199565b92915050565b60008135905061248b816141b0565b92915050565b6000815190506124a0816141c7565b92915050565b6000602082840312156124b857600080fd5b60006124c684828501612168565b91505092915050565b600080600080600060a086880312156124e757600080fd5b600086013567ffffffffffffffff81111561250157600080fd5b61250d8882890161217d565b955050602086013567ffffffffffffffff81111561252a57600080fd5b612536888289016122e8565b945050604086013567ffffffffffffffff81111561255357600080fd5b61255f88828901612274565b935050606086013567ffffffffffffffff81111561257c57600080fd5b61258888828901612200565b925050608086013567ffffffffffffffff8111156125a557600080fd5b6125b1888289016123fe565b9150509295509295909350565b6000602082840312156125d057600080fd5b60006125de84828501612380565b91505092915050565b6000602082840312156125f957600080fd5b600061260784828501612452565b91505092915050565b60006020828403121561262257600080fd5b600061263084828501612467565b91505092915050565b6000806040838503121561264c57600080fd5b600061265a85828601612452565b925050602061266b85828601612168565b9150509250929050565b6000806040838503121561268857600080fd5b600061269685828601612452565b92505060206126a78582860161236b565b9150509250929050565b600080600080600060a086880312156126c957600080fd5b60006126d788828901612452565b95505060206126e88882890161236b565b94505060406126f98882890161247c565b935050606061270a88828901612395565b925050608061271b88828901612395565b9150509295509295909350565b60006020828403121561273a57600080fd5b600061274884828501612491565b91505092915050565b600061275d83836127c7565b60208301905092915050565b60006127758383612a14565b905092915050565b60006127898383612bed565b905092915050565b600061279d83836133f3565b60208301905092915050565b6127b281613fb3565b82525050565b6127c181613eab565b82525050565b6127d081613e99565b82525050565b6127df81613e99565b82525050565b6127f66127f182613e99565b614097565b82525050565b600061280782613d85565b6128118185613dfb565b935061281c83613d1b565b8060005b8381101561284d5781516128348882612751565b975061283f83613dc7565b925050600181019050612820565b5085935050505092915050565b600061286582613d90565b61286f8185613e0c565b93508360208202850161288185613d2b565b8060005b858110156128bd578484038952815161289e8582612769565b94506128a983613dd4565b925060208a01995050600181019050612885565b50829750879550505050505092915050565b60006128da82613d9b565b6128e48185613e1d565b9350836020820285016128f685613d3b565b8060005b858110156129325784840389528151612913858261277d565b945061291e83613de1565b925060208a019950506001810190506128fa565b50829750879550505050505092915050565b600061294f82613da6565b6129598185613e2e565b935061296483613d4b565b8060005b8381101561299557815161297c8882612791565b975061298783613dee565b925050600181019050612968565b5085935050505092915050565b6129ab81613ebd565b82525050565b6129ba81613ebd565b82525050565b6129d16129cc82613ec9565b6140a9565b82525050565b6129e081613ef5565b82525050565b6129f76129f282613ef5565b6140b3565b82525050565b612a0e612a0982613eff565b6140bd565b82525050565b6000612a1f82613db1565b612a298185613e3f565b9350612a39818560208601614064565b612a42816140ed565b840191505092915050565b6000612a5882613db1565b612a628185613e50565b9350612a72818560208601614064565b612a7b816140ed565b840191505092915050565b600081546001811660008114612aa35760018114612ac857612b0c565b607f6002830416612ab48187613e61565b955060ff1983168652808601935050612b0c565b60028204612ad68187613e61565b9550612ae185613d70565b60005b82811015612b0357815481890152600182019150602081019050612ae4565b82880195505050505b505092915050565b600081546001811660008114612b315760018114612b5657612b9a565b607f6002830416612b428187613e61565b955060ff1983168652808601935050612b9a565b60028204612b648187613e61565b9550612b6f85613d5b565b60005b82811015612b9157815481890152600182019150602081019050612b72565b82880195505050505b505092915050565b612bab81613fc5565b82525050565b612bba81613fe9565b82525050565b612bc981613ffb565b82525050565b612bd88161400d565b82525050565b612be78161401f565b82525050565b6000612bf882613dbc565b612c028185613e6c565b9350612c12818560208601614064565b612c1b816140ed565b840191505092915050565b6000612c3182613dbc565b612c3b8185613e7d565b9350612c4b818560208601614064565b612c54816140ed565b840191505092915050565b6000612c6c600283613e8e565b91507f19010000000000000000000000000000000000000000000000000000000000006000830152600282019050919050565b6000612cac601b83613e7d565b91507f536166654d6174683a206164646974696f6e206f766572666c6f7700000000006000830152602082019050919050565b6000612cec602983613e7d565b91507f476f7665726e6f72416c7068613a3a73746174653a20696e76616c696420707260008301527f6f706f73616c20696400000000000000000000000000000000000000000000006020830152604082019050919050565b6000612d52602d83613e7d565b91507f476f7665726e6f72416c7068613a3a5f63617374566f74653a20766f7465722060008301527f616c726561647920766f746564000000000000000000000000000000000000006020830152604082019050919050565b6000612db8601a83613e7d565b91507f536166654d6174683a206469766973696f6e206279207a65726f0000000000006000830152602082019050919050565b6000612df8605983613e7d565b91507f476f7665726e6f72416c7068613a3a70726f706f73653a206f6e65206c69766560008301527f2070726f706f73616c207065722070726f706f7365722c20666f756e6420616e60208301527f20616c72656164792070656e64696e672070726f706f73616c000000000000006040830152606082019050919050565b6000612e84602883613e7d565b91507f476f7665726e6f72416c7068613a3a70726f706f73653a20746f6f206d616e7960008301527f20616374696f6e730000000000000000000000000000000000000000000000006020830152604082019050919050565b6000612eea604883613e7d565b91507f476f7665726e6f72416c7068613a3a657865637574653a2070726f706f73616c60008301527f2063616e206f6e6c79206265206578656375746564206966206974206973205360208301527f75636365656465640000000000000000000000000000000000000000000000006040830152606082019050919050565b6000612f76602783613e7d565b91507f457865637574696f6e206f66207472616e73616374696f6e206f6e207361666560008301527f206661696c6564000000000000000000000000000000000000000000000000006020830152604082019050919050565b6000612fdc601c83613e7d565b91507f54686973206e6565647320746f20626520696d706c656d656e746564000000006000830152602082019050919050565b600061301c604483613e7d565b91507f476f7665726e6f72416c7068613a3a70726f706f73653a2070726f706f73616c60008301527f2066756e6374696f6e20696e666f726d6174696f6e206172697479206d69736d60208301527f61746368000000000000000000000000000000000000000000000000000000006040830152606082019050919050565b60006130a8602183613e7d565b91507f536166654d6174683a206d756c7469706c69636174696f6e206f766572666c6f60008301527f77000000000000000000000000000000000000000000000000000000000000006020830152604082019050919050565b600061310e602c83613e7d565b91507f476f7665726e6f72416c7068613a3a70726f706f73653a206d7573742070726f60008301527f7669646520616374696f6e7300000000000000000000000000000000000000006020830152604082019050919050565b6000613174603f83613e7d565b91507f476f7665726e6f72416c7068613a3a70726f706f73653a2070726f706f73657260008301527f20766f7465732062656c6f772070726f706f73616c207468726573686f6c64006020830152604082019050919050565b60006131da602f83613e7d565b91507f476f7665726e6f72416c7068613a3a63617374566f746542795369673a20696e60008301527f76616c6964207369676e617475726500000000000000000000000000000000006020830152604082019050919050565b6000613240605883613e7d565b91507f476f7665726e6f72416c7068613a3a70726f706f73653a206f6e65206c69766560008301527f2070726f706f73616c207065722070726f706f7365722c20666f756e6420616e60208301527f20616c7265616479206163746976652070726f706f73616c00000000000000006040830152606082019050919050565b60006132cc604883613e7d565b91507f476f7665726e6f72416c7068613a3a657865637574653a2070726f706f73616c60008301527f2063616e206f6e6c7920626520617070726f766564206966206974206973205360208301527f75636365656465640000000000000000000000000000000000000000000000006040830152606082019050919050565b6000613358602a83613e7d565b91507f476f7665726e6f72416c7068613a3a5f63617374566f74653a20766f74696e6760008301527f20697320636c6f736564000000000000000000000000000000000000000000006020830152604082019050919050565b6060820160008201516133c760008501826129a2565b5060208201516133da60208501826129a2565b5060408201516133ed60408501826133f3565b50505050565b6133fc81613f84565b82525050565b61340b81613f84565b82525050565b61341a81613f8e565b82525050565b61343161342c82613f8e565b6140d9565b82525050565b600061344382876129c0565b600c8201915061345382866127e5565b60148201915061346382856129e6565b6020820191506134738284613420565b60018201915081905095945050505050565b600061349182856129fd565b6004820191506134a18284612b14565b91508190509392505050565b60006134b98284612a86565b915081905092915050565b60006134cf82612c5f565b91506134db82856129e6565b6020820191506134eb82846129e6565b6020820191508190509392505050565b600060208201905061351060008301846127d6565b92915050565b600060408201905061352b60008301856127a9565b6135386020830184613402565b9392505050565b600060408201905061355460008301856127d6565b6135616020830184613402565b9392505050565b600060808201905061357d60008301876127d6565b61358a6020830186613402565b61359760408301856129b1565b6135a46060830184613402565b95945050505050565b6000610140820190506135c3600083018d6127d6565b6135d0602083018c613402565b81810360408301526135e2818b612a4d565b90506135f1606083018a612bb1565b6135fe6080830189612bde565b61360b60a0830188612bde565b61361860c0830187612bde565b61362560e08301866127a9565b6136336101008301856127b8565b8181036101208301526136468184612a4d565b90509b9a5050505050505050505050565b6000606082019050818103600083015261367181866127fc565b905081810360208301526136858185612944565b90508181036040830152613699818461285a565b9050949350505050565b60006060820190506136b860008301866129b1565b6136c560208301856129b1565b6136d26040830184613402565b949350505050565b60006020820190506136ef60008301846129d7565b92915050565b600060808201905061370a60008301876129d7565b61371760208301866129d7565b6137246040830185613402565b61373160608301846127d6565b95945050505050565b600060608201905061374f60008301866129d7565b61375c6020830185613402565b61376960408301846129b1565b949350505050565b600060808201905061378660008301876129d7565b6137936020830186613411565b6137a060408301856129d7565b6137ad60608301846129d7565b95945050505050565b60006020820190506137cb6000830184612ba2565b92915050565b60006020820190506137e66000830184612bc0565b92915050565b60006020820190506138016000830184612bcf565b92915050565b600060208201905081810360008301526138218184612c26565b905092915050565b6000602082019050818103600083015261384281612c9f565b9050919050565b6000602082019050818103600083015261386281612cdf565b9050919050565b6000602082019050818103600083015261388281612d45565b9050919050565b600060208201905081810360008301526138a281612dab565b9050919050565b600060208201905081810360008301526138c281612deb565b9050919050565b600060208201905081810360008301526138e281612e77565b9050919050565b6000602082019050818103600083015261390281612edd565b9050919050565b6000602082019050818103600083015261392281612f69565b9050919050565b6000602082019050818103600083015261394281612fcf565b9050919050565b600060208201905081810360008301526139628161300f565b9050919050565b600060208201905081810360008301526139828161309b565b9050919050565b600060208201905081810360008301526139a281613101565b9050919050565b600060208201905081810360008301526139c281613167565b9050919050565b600060208201905081810360008301526139e2816131cd565b9050919050565b60006020820190508181036000830152613a0281613233565b9050919050565b60006020820190508181036000830152613a22816132bf565b9050919050565b60006020820190508181036000830152613a428161334b565b9050919050565b6000606082019050613a5e60008301846133b1565b92915050565b6000602082019050613a796000830184613402565b92915050565b600061014082019050613a95600083018d613402565b613aa2602083018c6127a9565b8181036040830152613ab4818b6127fc565b90508181036060830152613ac8818a612944565b90508181036080830152613adc81896128cf565b905081810360a0830152613af0818861285a565b9050613aff60c0830187613402565b613b0c60e0830186613402565b818103610100830152613b1f8185612c26565b9050613b2f610120830184613402565b9b9a5050505050505050505050565b600061014082019050613b54600083018d613402565b613b61602083018c6127d6565b613b6e604083018b613402565b613b7b606083018a613402565b613b886080830189613402565b613b9560a0830188613402565b613ba260c0830187613402565b613baf60e08301866129b1565b613bbd6101008301856129b1565b613bcb610120830184613402565b9b9a5050505050505050505050565b6000604051905081810181811067ffffffffffffffff82111715613c0157613c006140eb565b5b8060405250919050565b600067ffffffffffffffff821115613c2657613c256140eb565b5b602082029050602081019050919050565b600067ffffffffffffffff821115613c5257613c516140eb565b5b602082029050602081019050919050565b600067ffffffffffffffff821115613c7e57613c7d6140eb565b5b602082029050602081019050919050565b600067ffffffffffffffff821115613caa57613ca96140eb565b5b602082029050602081019050919050565b600067ffffffffffffffff821115613cd657613cd56140eb565b5b601f19601f8301169050602081019050919050565b600067ffffffffffffffff821115613d0657613d056140eb565b5b601f19601f8301169050602081019050919050565b6000819050602082019050919050565b6000819050602082019050919050565b6000819050602082019050919050565b6000819050602082019050919050565b60008190508160005260206000209050919050565b60008190508160005260206000209050919050565b600081519050919050565b600081519050919050565b600081519050919050565b600081519050919050565b600081519050919050565b600081519050919050565b6000602082019050919050565b6000602082019050919050565b6000602082019050919050565b6000602082019050919050565b600082825260208201905092915050565b600082825260208201905092915050565b600082825260208201905092915050565b600082825260208201905092915050565b600082825260208201905092915050565b600082825260208201905092915050565b600081905092915050565b600082825260208201905092915050565b600082825260208201905092915050565b600081905092915050565b6000613ea482613f64565b9050919050565b6000613eb682613f64565b9050919050565b60008115159050919050565b60007fffffffffffffffffffffffff000000000000000000000000000000000000000082169050919050565b6000819050919050565b60007fffffffff0000000000000000000000000000000000000000000000000000000082169050919050565b6000819050613f3982614118565b919050565b6000819050613f4c8261412c565b919050565b6000819050613f5f82614140565b919050565b600073ffffffffffffffffffffffffffffffffffffffff82169050919050565b6000819050919050565b600060ff82169050919050565b60006bffffffffffffffffffffffff82169050919050565b6000613fbe82614031565b9050919050565b6000613fd082613fd7565b9050919050565b6000613fe282613f64565b9050919050565b6000613ff482613f2b565b9050919050565b600061400682613f3e565b9050919050565b600061401882613f51565b9050919050565b600061402a82613f84565b9050919050565b600061403c82614043565b9050919050565b600061404e82613f64565b9050919050565b82818337600083830152505050565b60005b83811015614082578082015181840152602081019050614067565b83811115614091576000848401525b50505050565b60006140a2826140c7565b9050919050565b6000819050919050565b6000819050919050565b6000819050919050565b60006140d28261410b565b9050919050565b60006140e4826140fe565b9050919050565bfe5b6000601f19601f8301169050919050565b60008160f81b9050919050565b60008160601b9050919050565b60028110614129576141286140eb565b5b50565b6008811061413d5761413c6140eb565b5b50565b60028110614151576141506140eb565b5b50565b61415d81613e99565b811461416857600080fd5b50565b61417481613ebd565b811461417f57600080fd5b50565b61418b81613ef5565b811461419657600080fd5b50565b6141a281613f84565b81146141ad57600080fd5b50565b6141b981613f8e565b81146141c457600080fd5b50565b6141d081613f9b565b81146141db57600080fd5b5056fe476f7665726e6f72416c7068612e76322e53696d706c69666965642e416e642e506172616d657472697a6564a2646970667358221220c6a24927df95cdcb6bee4f3f8e90c888820a5c97ac9dd17bdb30da9dd4868e2a64736f6c63430007030033",
  "devdoc": {
    "kind": "dev",
    "methods": {
      "propose(address[],uint256[],string[],bytes[],string)": {
        "details": "propose to execute a series of transactions"
      }
    },
    "stateVariables": {
      "_votingDelay": {
        "details": "The delay before voting on a proposal may take place, once proposed"
      },
      "proposalThreshold": {
        "details": "The percentage of votes required in order for a voter to become a proposer"
      },
      "quorumVotes": {
        "details": "The percentage of votes in support of a proposal required in order for a quorum to be reached and for a vote to succeed"
      },
      "votingPeriod": {
        "details": "The duration of voting on a proposal, in blocks"
      }
    },
    "version": 1
  },
  "userdoc": {
    "events": {
      "ProposalCanceled(uint256)": {
        "notice": "An event emitted when a proposal has been canceled"
      },
      "ProposalCreated(uint256,address,address[],uint256[],string[],bytes[],uint256,uint256,string,uint256)": {
        "notice": "An event emitted when a new proposal is created"
      },
      "ProposalExecuted(uint256)": {
        "notice": "An event emitted when a proposal has been executed in the safe"
      },
      "ProposalQueued(uint256,uint256)": {
        "notice": "An event emitted when a proposal has been queued in the safe"
      },
      "VoteCast(address,uint256,bool,uint256)": {
        "notice": "An event emitted when a vote has been cast on a proposal"
      }
    },
    "kind": "user",
    "methods": {
      "BALLOT_TYPEHASH()": {
        "notice": "The EIP-712 typehash for the ballot struct used by the contract"
      },
      "DOMAIN_TYPEHASH()": {
        "notice": "The EIP-712 typehash for the contract's domain"
      },
      "NAME()": {
        "notice": "The name of this contract"
      },
      "latestProposalIds(address)": {
        "notice": "The latest proposal for each proposer"
      },
      "proposalCount()": {
        "notice": "The total number of proposals"
      },
      "proposals(uint256)": {
        "notice": "The official record of all proposals ever proposed"
      },
      "safe()": {
        "notice": "The address of the Gnosis Safe"
      },
      "token()": {
        "notice": "The address of the governance token"
      }
    },
    "notice": "An adaptation of the GovernorAlpha contract Forked from https://github.com/compound-finance/compound-protocol/blob/compound/2.8/contracts/Governance/GovernorAlpha.sol but with many changes - basically, we only kept the \"propose - vote -execute\" flow of thione decision mechanism - add configuration options to the constructor: - `safe` -> the address of a Gnosis safe that holds the assets and will execut the proposals - `token` -> the address of a token that determines the Voting Power - `tokenType` -> type of the token contract, either Minime or ERC20Snapshot -`quorumVotes` - `proposalThreshold` - `votingDelay` - `votingPeriod` - changed the execute semantics to call the Gnosis safe - added an `approveHash` function that call `approveHash` on the safe - upgrade to solidity 0.7.3, which required some changes in syntax - call `token.balanceOfAt()` instead of `token.getPriorVotes()` - base all voting logic on the basis of the voting power distribution at proposal creation (GovernorAlpha checks the voting proposalThreshold at the block bf proposal creation, and counts the votes from the start time of the proposal) - add configuration options to the constructor: - `safe` -> the address of a Gnosis safe that holds the assets and will execut the proposals - `token` -> the address of a token that determines the Voting Power - `tokenType` -> type of the token contract, either Minime or ERC20Snapshot -`quorumVotes` - `proposalThreshold` - `votingDelay` - `votingPeriod` - change the semantics of `quorumvotes` and `proposalThreshold` to percentages, not absolute figures - rename `timelock` to `safe` - removed the logic related to timelocks, because in Lego this kind of safety mechanism has a better place on the Gnosis Safe - removed the logic related to the guardian, becuase in the Lego Architecture this kind of permissioning is easier handled on the Gnosis Safe - rename Comp to \"token\" - added a new parameter to the constructor called tokenType - it can either be ERC20Snapshot or Minime",
    "version": 1
  },
  "storageLayout": {
    "storage": [
      {
        "astId": 373,
        "contract": "contracts/decisionEngines/DecisionEngine01.sol:DecisionEngine01",
        "label": "quorumVotes",
        "offset": 0,
        "slot": "0",
        "type": "t_uint256"
      },
      {
        "astId": 376,
        "contract": "contracts/decisionEngines/DecisionEngine01.sol:DecisionEngine01",
        "label": "proposalThreshold",
        "offset": 0,
        "slot": "1",
        "type": "t_uint256"
      },
      {
        "astId": 378,
        "contract": "contracts/decisionEngines/DecisionEngine01.sol:DecisionEngine01",
        "label": "proposalMaxOperations",
        "offset": 0,
        "slot": "2",
        "type": "t_uint256"
      },
      {
        "astId": 382,
        "contract": "contracts/decisionEngines/DecisionEngine01.sol:DecisionEngine01",
        "label": "_votingDelay",
        "offset": 0,
        "slot": "3",
        "type": "t_uint256"
      },
      {
        "astId": 393,
        "contract": "contracts/decisionEngines/DecisionEngine01.sol:DecisionEngine01",
        "label": "votingPeriod",
        "offset": 0,
        "slot": "4",
        "type": "t_uint256"
      },
      {
        "astId": 396,
        "contract": "contracts/decisionEngines/DecisionEngine01.sol:DecisionEngine01",
        "label": "safe",
        "offset": 0,
        "slot": "5",
        "type": "t_contract(IGnosisSafe)1421"
      },
      {
        "astId": 399,
        "contract": "contracts/decisionEngines/DecisionEngine01.sol:DecisionEngine01",
        "label": "token",
        "offset": 0,
        "slot": "6",
        "type": "t_address"
      },
      {
        "astId": 401,
        "contract": "contracts/decisionEngines/DecisionEngine01.sol:DecisionEngine01",
        "label": "tokenType",
        "offset": 20,
        "slot": "6",
        "type": "t_enum(TokenType)456"
      },
      {
        "astId": 404,
        "contract": "contracts/decisionEngines/DecisionEngine01.sol:DecisionEngine01",
        "label": "proposalCount",
        "offset": 0,
        "slot": "7",
        "type": "t_uint256"
      },
      {
        "astId": 461,
        "contract": "contracts/decisionEngines/DecisionEngine01.sol:DecisionEngine01",
        "label": "proposals",
        "offset": 0,
        "slot": "8",
        "type": "t_mapping(t_uint256,t_struct(Proposal)437_storage)"
      },
      {
        "astId": 467,
        "contract": "contracts/decisionEngines/DecisionEngine01.sol:DecisionEngine01",
        "label": "receipts",
        "offset": 0,
        "slot": "9",
        "type": "t_mapping(t_uint256,t_mapping(t_address,t_struct(Receipt)444_storage))"
      },
      {
        "astId": 472,
        "contract": "contracts/decisionEngines/DecisionEngine01.sol:DecisionEngine01",
        "label": "latestProposalIds",
        "offset": 0,
        "slot": "10",
        "type": "t_mapping(t_address,t_uint256)"
      }
    ],
    "types": {
      "t_address": {
        "encoding": "inplace",
        "label": "address",
        "numberOfBytes": "20"
      },
      "t_array(t_address)dyn_storage": {
        "base": "t_address",
        "encoding": "dynamic_array",
        "label": "address[]",
        "numberOfBytes": "32"
      },
      "t_array(t_bytes_storage)dyn_storage": {
        "base": "t_bytes_storage",
        "encoding": "dynamic_array",
        "label": "bytes[]",
        "numberOfBytes": "32"
      },
      "t_array(t_string_storage)dyn_storage": {
        "base": "t_string_storage",
        "encoding": "dynamic_array",
        "label": "string[]",
        "numberOfBytes": "32"
      },
      "t_array(t_uint256)dyn_storage": {
        "base": "t_uint256",
        "encoding": "dynamic_array",
        "label": "uint256[]",
        "numberOfBytes": "32"
      },
      "t_bool": {
        "encoding": "inplace",
        "label": "bool",
        "numberOfBytes": "1"
      },
      "t_bytes_storage": {
        "encoding": "bytes",
        "label": "bytes",
        "numberOfBytes": "32"
      },
      "t_contract(IGnosisSafe)1421": {
        "encoding": "inplace",
        "label": "contract IGnosisSafe",
        "numberOfBytes": "20"
      },
      "t_enum(TokenType)456": {
        "encoding": "inplace",
        "label": "enum DecisionEngine01.TokenType",
        "numberOfBytes": "1"
      },
      "t_mapping(t_address,t_struct(Receipt)444_storage)": {
        "encoding": "mapping",
        "key": "t_address",
        "label": "mapping(address => struct DecisionEngine01.Receipt)",
        "numberOfBytes": "32",
        "value": "t_struct(Receipt)444_storage"
      },
      "t_mapping(t_address,t_uint256)": {
        "encoding": "mapping",
        "key": "t_address",
        "label": "mapping(address => uint256)",
        "numberOfBytes": "32",
        "value": "t_uint256"
      },
      "t_mapping(t_uint256,t_mapping(t_address,t_struct(Receipt)444_storage))": {
        "encoding": "mapping",
        "key": "t_uint256",
        "label": "mapping(uint256 => mapping(address => struct DecisionEngine01.Receipt))",
        "numberOfBytes": "32",
        "value": "t_mapping(t_address,t_struct(Receipt)444_storage)"
      },
      "t_mapping(t_uint256,t_struct(Proposal)437_storage)": {
        "encoding": "mapping",
        "key": "t_uint256",
        "label": "mapping(uint256 => struct DecisionEngine01.Proposal)",
        "numberOfBytes": "32",
        "value": "t_struct(Proposal)437_storage"
      },
      "t_string_storage": {
        "encoding": "bytes",
        "label": "string",
        "numberOfBytes": "32"
      },
      "t_struct(Proposal)437_storage": {
        "encoding": "inplace",
        "label": "struct DecisionEngine01.Proposal",
        "members": [
          {
            "astId": 406,
            "contract": "contracts/decisionEngines/DecisionEngine01.sol:DecisionEngine01",
            "label": "id",
            "offset": 0,
            "slot": "0",
            "type": "t_uint256"
          },
          {
            "astId": 408,
            "contract": "contracts/decisionEngines/DecisionEngine01.sol:DecisionEngine01",
            "label": "proposer",
            "offset": 0,
            "slot": "1",
            "type": "t_address"
          },
          {
            "astId": 410,
            "contract": "contracts/decisionEngines/DecisionEngine01.sol:DecisionEngine01",
            "label": "eta",
            "offset": 0,
            "slot": "2",
            "type": "t_uint256"
          },
          {
            "astId": 413,
            "contract": "contracts/decisionEngines/DecisionEngine01.sol:DecisionEngine01",
            "label": "targets",
            "offset": 0,
            "slot": "3",
            "type": "t_array(t_address)dyn_storage"
          },
          {
            "astId": 416,
            "contract": "contracts/decisionEngines/DecisionEngine01.sol:DecisionEngine01",
            "label": "values",
            "offset": 0,
            "slot": "4",
            "type": "t_array(t_uint256)dyn_storage"
          },
          {
            "astId": 419,
            "contract": "contracts/decisionEngines/DecisionEngine01.sol:DecisionEngine01",
            "label": "signatures",
            "offset": 0,
            "slot": "5",
            "type": "t_array(t_string_storage)dyn_storage"
          },
          {
            "astId": 422,
            "contract": "contracts/decisionEngines/DecisionEngine01.sol:DecisionEngine01",
            "label": "calldatas",
            "offset": 0,
            "slot": "6",
            "type": "t_array(t_bytes_storage)dyn_storage"
          },
          {
            "astId": 424,
            "contract": "contracts/decisionEngines/DecisionEngine01.sol:DecisionEngine01",
            "label": "startBlock",
            "offset": 0,
            "slot": "7",
            "type": "t_uint256"
          },
          {
            "astId": 426,
            "contract": "contracts/decisionEngines/DecisionEngine01.sol:DecisionEngine01",
            "label": "endBlock",
            "offset": 0,
            "slot": "8",
            "type": "t_uint256"
          },
          {
            "astId": 428,
            "contract": "contracts/decisionEngines/DecisionEngine01.sol:DecisionEngine01",
            "label": "forVotes",
            "offset": 0,
            "slot": "9",
            "type": "t_uint256"
          },
          {
            "astId": 430,
            "contract": "contracts/decisionEngines/DecisionEngine01.sol:DecisionEngine01",
            "label": "againstVotes",
            "offset": 0,
            "slot": "10",
            "type": "t_uint256"
          },
          {
            "astId": 432,
            "contract": "contracts/decisionEngines/DecisionEngine01.sol:DecisionEngine01",
            "label": "canceled",
            "offset": 0,
            "slot": "11",
            "type": "t_bool"
          },
          {
            "astId": 434,
            "contract": "contracts/decisionEngines/DecisionEngine01.sol:DecisionEngine01",
            "label": "executed",
            "offset": 1,
            "slot": "11",
            "type": "t_bool"
          },
          {
            "astId": 436,
            "contract": "contracts/decisionEngines/DecisionEngine01.sol:DecisionEngine01",
            "label": "snapshotId",
            "offset": 0,
            "slot": "12",
            "type": "t_uint256"
          }
        ],
        "numberOfBytes": "416"
      },
      "t_struct(Receipt)444_storage": {
        "encoding": "inplace",
        "label": "struct DecisionEngine01.Receipt",
        "members": [
          {
            "astId": 439,
            "contract": "contracts/decisionEngines/DecisionEngine01.sol:DecisionEngine01",
            "label": "hasVoted",
            "offset": 0,
            "slot": "0",
            "type": "t_bool"
          },
          {
            "astId": 441,
            "contract": "contracts/decisionEngines/DecisionEngine01.sol:DecisionEngine01",
            "label": "support",
            "offset": 1,
            "slot": "0",
            "type": "t_bool"
          },
          {
            "astId": 443,
            "contract": "contracts/decisionEngines/DecisionEngine01.sol:DecisionEngine01",
            "label": "votes",
            "offset": 0,
            "slot": "1",
            "type": "t_uint256"
          }
        ],
        "numberOfBytes": "64"
      },
      "t_uint256": {
        "encoding": "inplace",
        "label": "uint256",
        "numberOfBytes": "32"
      }
    }
  }
}