{
  "address": "0x2279B7A0a67DB372996a5FaB50D91eAA73d2eBe6",
  "abi": [
    {
      "constant": false,
      "inputs": [
        {
          "name": "_parentToken",
          "type": "address"
        },
        {
          "name": "_snapshotBlock",
          "type": "uint256"
        },
        {
          "name": "_tokenName",
          "type": "string"
        },
        {
          "name": "_decimalUnits",
          "type": "uint8"
        },
        {
          "name": "_tokenSymbol",
          "type": "string"
        },
        {
          "name": "_transfersEnabled",
          "type": "bool"
        }
      ],
      "name": "createCloneToken",
      "outputs": [
        {
          "name": "",
          "type": "address"
        }
      ],
      "payable": false,
      "stateMutability": "nonpayable",
      "type": "function"
    }
  ],
  "transactionHash": "0xed3d535f465eecf82be8539771e8e7ed2d06890b38d2cac6cf2bb52af2de52d6",
  "args": [],
  "solcInputHash": "9da178ee171b8cd919048b69eaf3137f",
  "bytecode": "0x6060604052341561000f57600080fd5b61312b8061001e6000396000f300606060405260043610610041576000357c0100000000000000000000000000000000000000000000000000000000900463ffffffff1680635b7b72c114610046575b600080fd5b341561005157600080fd5b610123600480803573ffffffffffffffffffffffffffffffffffffffff1690602001909190803590602001909190803590602001908201803590602001908080601f0160208091040260200160405190810160405280939291908181526020018383808284378201915050505050509190803560ff1690602001909190803590602001908201803590602001908080601f016020809104026020016040519081016040528093929190818152602001838380828437820191505050505050919080351515906020019091905050610165565b604051808273ffffffffffffffffffffffffffffffffffffffff1673ffffffffffffffffffffffffffffffffffffffff16815260200191505060405180910390f35b600080308888888888886101776103ab565b808873ffffffffffffffffffffffffffffffffffffffff1673ffffffffffffffffffffffffffffffffffffffff1681526020018773ffffffffffffffffffffffffffffffffffffffff1673ffffffffffffffffffffffffffffffffffffffff168152602001868152602001806020018560ff1660ff1681526020018060200184151515158152602001838103835287818151815260200191508051906020019080838360005b8381101561023857808201518184015260208101905061021d565b50505050905090810190601f1680156102655780820380516001836020036101000a031916815260200191505b50838103825285818151815260200191508051906020019080838360005b8381101561029e578082015181840152602081019050610283565b50505050905090810190601f1680156102cb5780820380516001836020036101000a031916815260200191505b509950505050505050505050604051809103906000f08015156102ed57600080fd5b90508073ffffffffffffffffffffffffffffffffffffffff16633cebb823336040518263ffffffff167c0100000000000000000000000000000000000000000000000000000000028152600401808273ffffffffffffffffffffffffffffffffffffffff1673ffffffffffffffffffffffffffffffffffffffff168152602001915050600060405180830381600087803b151561038957600080fd5b6102c65a03f1151561039a57600080fd5b505050809150509695505050505050565b604051612d44806103bc83390190560060606040526040805190810160405280600781526020017f4d4d545f302e32000000000000000000000000000000000000000000000000008152506004908051906020019062000051929190620001f9565b5034156200005e57600080fd5b60405162002d4438038062002d4483398101604052808051906020019091908051906020019091908051906020019091908051820191906020018051906020019091908051820191906020018051906020019091905050336000806101000a81548173ffffffffffffffffffffffffffffffffffffffff021916908373ffffffffffffffffffffffffffffffffffffffff16021790555086600b60016101000a81548173ffffffffffffffffffffffffffffffffffffffff021916908373ffffffffffffffffffffffffffffffffffffffff16021790555083600190805190602001906200014e929190620001f9565b5082600260006101000a81548160ff021916908360ff160217905550816003908051906020019062000182929190620001f9565b5085600560006101000a81548173ffffffffffffffffffffffffffffffffffffffff021916908373ffffffffffffffffffffffffffffffffffffffff1602179055508460068190555080600b60006101000a81548160ff0219169083151502179055504360078190555050505050505050620002a8565b828054600181600116156101000203166002900490600052602060002090601f016020900481019282601f106200023c57805160ff19168380011785556200026d565b828001600101855582156200026d579182015b828111156200026c5782518255916020019190600101906200024f565b5b5090506200027c919062000280565b5090565b620002a591905b80821115620002a157600081600090555060010162000287565b5090565b90565b612a8c80620002b86000396000f300606060405260043610610149576000357c0100000000000000000000000000000000000000000000000000000000900463ffffffff16806306fdde031461026b578063095ea7b3146102f9578063176345141461035357806318160ddd1461037c57806323b872dd146103a5578063313ce5671461041e5780633cebb8231461044d5780634ee2cd7e1461048657806354fd4d50146104dc5780636638c0871461056a57806370a082311461066a57806380a54001146106b7578063827f32c01461070c57806395d89b4114610766578063981b24d0146107f4578063a9059cbb1461082b578063bef97c8714610885578063c5bcc4f1146108b2578063cae9ca51146108db578063d3ce77fe14610978578063dd62ed3e146109d2578063df8de3e714610a3e578063e77772fe14610a77578063f41e60c514610acc578063f77c479114610af1575b6101736000809054906101000a900473ffffffffffffffffffffffffffffffffffffffff16610b46565b151561017e57600080fd5b6000809054906101000a900473ffffffffffffffffffffffffffffffffffffffff1673ffffffffffffffffffffffffffffffffffffffff1663f48c305434336000604051602001526040518363ffffffff167c0100000000000000000000000000000000000000000000000000000000028152600401808273ffffffffffffffffffffffffffffffffffffffff1673ffffffffffffffffffffffffffffffffffffffff1681526020019150506020604051808303818588803b151561024257600080fd5b6125ee5a03f1151561025357600080fd5b5050505060405180519050151561026957600080fd5b005b341561027657600080fd5b61027e610b82565b6040518080602001828103825283818151815260200191508051906020019080838360005b838110156102be5780820151818401526020810190506102a3565b50505050905090810190601f1680156102eb5780820380516001836020036101000a031916815260200191505b509250505060405180910390f35b341561030457600080fd5b610339600480803573ffffffffffffffffffffffffffffffffffffffff16906020019091908035906020019091905050610c20565b604051808215151515815260200191505060405180910390f35b341561035e57600080fd5b610366610f19565b6040518082815260200191505060405180910390f35b341561038757600080fd5b61038f610f1f565b6040518082815260200191505060405180910390f35b34156103b057600080fd5b610404600480803573ffffffffffffffffffffffffffffffffffffffff1690602001909190803573ffffffffffffffffffffffffffffffffffffffff16906020019091908035906020019091905050610f2f565b604051808215151515815260200191505060405180910390f35b341561042957600080fd5b6104316110ce565b604051808260ff1660ff16815260200191505060405180910390f35b341561045857600080fd5b610484600480803573ffffffffffffffffffffffffffffffffffffffff169060200190919050506110e1565b005b341561049157600080fd5b6104c6600480803573ffffffffffffffffffffffffffffffffffffffff1690602001909190803590602001909190505061117f565b6040518082815260200191505060405180910390f35b34156104e757600080fd5b6104ef6113f4565b6040518080602001828103825283818151815260200191508051906020019080838360005b8381101561052f578082015181840152602081019050610514565b50505050905090810190601f16801561055c5780820380516001836020036101000a031916815260200191505b509250505060405180910390f35b341561057557600080fd5b610628600480803590602001908201803590602001908080601f0160208091040260200160405190810160405280939291908181526020018383808284378201915050505050509190803560ff1690602001909190803590602001908201803590602001908080601f016020809104026020016040519081016040528093929190818152602001838380828437820191505050505050919080359060200190919080351515906020019091905050611492565b604051808273ffffffffffffffffffffffffffffffffffffffff1673ffffffffffffffffffffffffffffffffffffffff16815260200191505060405180910390f35b341561067557600080fd5b6106a1600480803573ffffffffffffffffffffffffffffffffffffffff16906020019091905050611789565b6040518082815260200191505060405180910390f35b34156106c257600080fd5b6106ca61179c565b604051808273ffffffffffffffffffffffffffffffffffffffff1673ffffffffffffffffffffffffffffffffffffffff16815260200191505060405180910390f35b341561071757600080fd5b61074c600480803573ffffffffffffffffffffffffffffffffffffffff169060200190919080359060200190919050506117c2565b604051808215151515815260200191505060405180910390f35b341561077157600080fd5b61077961190c565b6040518080602001828103825283818151815260200191508051906020019080838360005b838110156107b957808201518184015260208101905061079e565b50505050905090810190601f1680156107e65780820380516001836020036101000a031916815260200191505b509250505060405180910390f35b34156107ff57600080fd5b61081560048080359060200190919050506119aa565b6040518082815260200191505060405180910390f35b341561083657600080fd5b61086b600480803573ffffffffffffffffffffffffffffffffffffffff16906020019091908035906020019091905050611b33565b604051808215151515815260200191505060405180910390f35b341561089057600080fd5b610898611b65565b604051808215151515815260200191505060405180910390f35b34156108bd57600080fd5b6108c5611b78565b6040518082815260200191505060405180910390f35b34156108e657600080fd5b61095e600480803573ffffffffffffffffffffffffffffffffffffffff1690602001909190803590602001909190803590602001908201803590602001908080601f01602080910402602001604051908101604052809392919081815260200183838082843782019150505050505091905050611b7e565b604051808215151515815260200191505060405180910390f35b341561098357600080fd5b6109b8600480803573ffffffffffffffffffffffffffffffffffffffff16906020019091908035906020019091905050611cf7565b604051808215151515815260200191505060405180910390f35b34156109dd57600080fd5b610a28600480803573ffffffffffffffffffffffffffffffffffffffff1690602001909190803573ffffffffffffffffffffffffffffffffffffffff16906020019091905050611e3d565b6040518082815260200191505060405180910390f35b3415610a4957600080fd5b610a75600480803573ffffffffffffffffffffffffffffffffffffffff16906020019091905050611ec4565b005b3415610a8257600080fd5b610a8a6121f5565b604051808273ffffffffffffffffffffffffffffffffffffffff1673ffffffffffffffffffffffffffffffffffffffff16815260200191505060405180910390f35b3415610ad757600080fd5b610aef6004808035151590602001909190505061221b565b005b3415610afc57600080fd5b610b04612293565b604051808273ffffffffffffffffffffffffffffffffffffffff1673ffffffffffffffffffffffffffffffffffffffff16815260200191505060405180910390f35b60008060008373ffffffffffffffffffffffffffffffffffffffff161415610b715760009150610b7c565b823b90506000811191505b50919050565b60018054600181600116156101000203166002900480601f016020809104026020016040519081016040528092919081815260200182805460018160011615610100020316600290048015610c185780601f10610bed57610100808354040283529160200191610c18565b820191906000526020600020905b815481529060010190602001808311610bfb57829003601f168201915b505050505081565b6000600b60009054906101000a900460ff161515610c3d57600080fd5b6000821480610cc857506000600960003373ffffffffffffffffffffffffffffffffffffffff1673ffffffffffffffffffffffffffffffffffffffff16815260200190815260200160002060008573ffffffffffffffffffffffffffffffffffffffff1673ffffffffffffffffffffffffffffffffffffffff16815260200190815260200160002054145b1515610cd357600080fd5b610cfd6000809054906101000a900473ffffffffffffffffffffffffffffffffffffffff16610b46565b15610e29576000809054906101000a900473ffffffffffffffffffffffffffffffffffffffff1673ffffffffffffffffffffffffffffffffffffffff1663da682aeb3385856000604051602001526040518463ffffffff167c0100000000000000000000000000000000000000000000000000000000028152600401808473ffffffffffffffffffffffffffffffffffffffff1673ffffffffffffffffffffffffffffffffffffffff1681526020018373ffffffffffffffffffffffffffffffffffffffff1673ffffffffffffffffffffffffffffffffffffffff1681526020018281526020019350505050602060405180830381600087803b1515610e0257600080fd5b6102c65a03f11515610e1357600080fd5b505050604051805190501515610e2857600080fd5b5b81600960003373ffffffffffffffffffffffffffffffffffffffff1673ffffffffffffffffffffffffffffffffffffffff16815260200190815260200160002060008573ffffffffffffffffffffffffffffffffffffffff1673ffffffffffffffffffffffffffffffffffffffff168152602001908152602001600020819055508273ffffffffffffffffffffffffffffffffffffffff163373ffffffffffffffffffffffffffffffffffffffff167f8c5be1e5ebec7d5bd14f71427d1e84f3dd0314c0f7b2291e5b200ac8c7c3b925846040518082815260200191505060405180910390a36001905092915050565b60075481565b6000610f2a436119aa565b905090565b60008060009054906101000a900473ffffffffffffffffffffffffffffffffffffffff1673ffffffffffffffffffffffffffffffffffffffff163373ffffffffffffffffffffffffffffffffffffffff161415156110b857600b60009054906101000a900460ff161515610fa257600080fd5b81600960008673ffffffffffffffffffffffffffffffffffffffff1673ffffffffffffffffffffffffffffffffffffffff16815260200190815260200160002060003373ffffffffffffffffffffffffffffffffffffffff1673ffffffffffffffffffffffffffffffffffffffff168152602001908152602001600020541015151561102d57600080fd5b81600960008673ffffffffffffffffffffffffffffffffffffffff1673ffffffffffffffffffffffffffffffffffffffff16815260200190815260200160002060003373ffffffffffffffffffffffffffffffffffffffff1673ffffffffffffffffffffffffffffffffffffffff168152602001908152602001600020600082825403925050819055505b6110c38484846122b8565b600190509392505050565b600260009054906101000a900460ff1681565b6000809054906101000a900473ffffffffffffffffffffffffffffffffffffffff1673ffffffffffffffffffffffffffffffffffffffff163373ffffffffffffffffffffffffffffffffffffffff1614151561113c57600080fd5b806000806101000a81548173ffffffffffffffffffffffffffffffffffffffff021916908373ffffffffffffffffffffffffffffffffffffffff16021790555050565b600080600860008573ffffffffffffffffffffffffffffffffffffffff1673ffffffffffffffffffffffffffffffffffffffff168152602001908152602001600020805490501480611259575081600860008573ffffffffffffffffffffffffffffffffffffffff1673ffffffffffffffffffffffffffffffffffffffff168152602001908152602001600020600081548110151561121a57fe5b906000526020600020900160000160009054906101000a90046fffffffffffffffffffffffffffffffff166fffffffffffffffffffffffffffffffff16115b156113a3576000600560009054906101000a900473ffffffffffffffffffffffffffffffffffffffff1673ffffffffffffffffffffffffffffffffffffffff1614151561139a57600560009054906101000a900473ffffffffffffffffffffffffffffffffffffffff1673ffffffffffffffffffffffffffffffffffffffff16634ee2cd7e846112eb8560065461262b565b6000604051602001526040518363ffffffff167c0100000000000000000000000000000000000000000000000000000000028152600401808373ffffffffffffffffffffffffffffffffffffffff1673ffffffffffffffffffffffffffffffffffffffff16815260200182815260200192505050602060405180830381600087803b151561137857600080fd5b6102c65a03f1151561138957600080fd5b5050506040518051905090506113ee565b600090506113ee565b6113eb600860008573ffffffffffffffffffffffffffffffffffffffff1673ffffffffffffffffffffffffffffffffffffffff16815260200190815260200160002083612644565b90505b92915050565b60048054600181600116156101000203166002900480601f01602080910402602001604051908101604052809291908181526020018280546001816001161561010002031660029004801561148a5780601f1061145f5761010080835404028352916020019161148a565b820191906000526020600020905b81548152906001019060200180831161146d57829003601f168201915b505050505081565b60008060008414156114a2574393505b600b60019054906101000a900473ffffffffffffffffffffffffffffffffffffffff1673ffffffffffffffffffffffffffffffffffffffff16635b7b72c130868a8a8a896000604051602001526040518763ffffffff167c0100000000000000000000000000000000000000000000000000000000028152600401808773ffffffffffffffffffffffffffffffffffffffff1673ffffffffffffffffffffffffffffffffffffffff168152602001868152602001806020018560ff1660ff1681526020018060200184151515158152602001838103835287818151815260200191508051906020019080838360005b838110156115ac578082015181840152602081019050611591565b50505050905090810190601f1680156115d95780820380516001836020036101000a031916815260200191505b50838103825285818151815260200191508051906020019080838360005b838110156116125780820151818401526020810190506115f7565b50505050905090810190601f16801561163f5780820380516001836020036101000a031916815260200191505b5098505050505050505050602060405180830381600087803b151561166357600080fd5b6102c65a03f1151561167457600080fd5b5050506040518051905090508073ffffffffffffffffffffffffffffffffffffffff16633cebb823336040518263ffffffff167c0100000000000000000000000000000000000000000000000000000000028152600401808273ffffffffffffffffffffffffffffffffffffffff1673ffffffffffffffffffffffffffffffffffffffff168152602001915050600060405180830381600087803b151561171a57600080fd5b6102c65a03f1151561172b57600080fd5b5050508073ffffffffffffffffffffffffffffffffffffffff167f086c875b377f900b07ce03575813022f05dd10ed7640b5282cf6d3c3fc352ade856040518082815260200191505060405180910390a28091505095945050505050565b6000611795824361117f565b9050919050565b600560009054906101000a900473ffffffffffffffffffffffffffffffffffffffff1681565b60008060008060009054906101000a900473ffffffffffffffffffffffffffffffffffffffff1673ffffffffffffffffffffffffffffffffffffffff163373ffffffffffffffffffffffffffffffffffffffff1614151561182257600080fd5b61182a610f1f565b9150818483011015151561183d57600080fd5b61184685611789565b9050808482011015151561185957600080fd5b611866600a858401612858565b6118b0600860008773ffffffffffffffffffffffffffffffffffffffff1673ffffffffffffffffffffffffffffffffffffffff168152602001908152602001600020858301612858565b8473ffffffffffffffffffffffffffffffffffffffff1660007fddf252ad1be2c89b69c2b068fc378daa952ba7f163c4a11628f55a4df523b3ef866040518082815260200191505060405180910390a360019250505092915050565b60038054600181600116156101000203166002900480601f0160208091040260200160405190810160405280929190818152602001828054600181600116156101000203166002900480156119a25780601f10611977576101008083540402835291602001916119a2565b820191906000526020600020905b81548152906001019060200180831161198557829003601f168201915b505050505081565b600080600a805490501480611a0a575081600a60008154811015156119cb57fe5b906000526020600020900160000160009054906101000a90046fffffffffffffffffffffffffffffffff166fffffffffffffffffffffffffffffffff16115b15611b20576000600560009054906101000a900473ffffffffffffffffffffffffffffffffffffffff1673ffffffffffffffffffffffffffffffffffffffff16141515611b1757600560009054906101000a900473ffffffffffffffffffffffffffffffffffffffff1673ffffffffffffffffffffffffffffffffffffffff1663981b24d0611a9b8460065461262b565b6000604051602001526040518263ffffffff167c010000000000000000000000000000000000000000000000000000000002815260040180828152602001915050602060405180830381600087803b1515611af557600080fd5b6102c65a03f11515611b0657600080fd5b505050604051805190509050611b2e565b60009050611b2e565b611b2b600a83612644565b90505b919050565b6000600b60009054906101000a900460ff161515611b5057600080fd5b611b5b3384846122b8565b6001905092915050565b600b60009054906101000a900460ff1681565b60065481565b6000611b8a8484610c20565b1515611b9557600080fd5b8373ffffffffffffffffffffffffffffffffffffffff16638f4ffcb1338530866040518563ffffffff167c0100000000000000000000000000000000000000000000000000000000028152600401808573ffffffffffffffffffffffffffffffffffffffff1673ffffffffffffffffffffffffffffffffffffffff1681526020018481526020018373ffffffffffffffffffffffffffffffffffffffff1673ffffffffffffffffffffffffffffffffffffffff16815260200180602001828103825283818151815260200191508051906020019080838360005b83811015611c8a578082015181840152602081019050611c6f565b50505050905090810190601f168015611cb75780820380516001836020036101000a031916815260200191505b5095505050505050600060405180830381600087803b1515611cd857600080fd5b6102c65a03f11515611ce957600080fd5b505050600190509392505050565b60008060008060009054906101000a900473ffffffffffffffffffffffffffffffffffffffff1673ffffffffffffffffffffffffffffffffffffffff163373ffffffffffffffffffffffffffffffffffffffff16141515611d5757600080fd5b611d5f610f1f565b9150838210151515611d7057600080fd5b611d7985611789565b9050838110151515611d8a57600080fd5b611d97600a858403612858565b611de1600860008773ffffffffffffffffffffffffffffffffffffffff1673ffffffffffffffffffffffffffffffffffffffff168152602001908152602001600020858303612858565b60008573ffffffffffffffffffffffffffffffffffffffff167fddf252ad1be2c89b69c2b068fc378daa952ba7f163c4a11628f55a4df523b3ef866040518082815260200191505060405180910390a360019250505092915050565b6000600960008473ffffffffffffffffffffffffffffffffffffffff1673ffffffffffffffffffffffffffffffffffffffff16815260200190815260200160002060008373ffffffffffffffffffffffffffffffffffffffff1673ffffffffffffffffffffffffffffffffffffffff16815260200190815260200160002054905092915050565b6000806000809054906101000a900473ffffffffffffffffffffffffffffffffffffffff1673ffffffffffffffffffffffffffffffffffffffff163373ffffffffffffffffffffffffffffffffffffffff16141515611f2257600080fd5b60008373ffffffffffffffffffffffffffffffffffffffff161415611fbe576000809054906101000a900473ffffffffffffffffffffffffffffffffffffffff1673ffffffffffffffffffffffffffffffffffffffff166108fc3073ffffffffffffffffffffffffffffffffffffffff16319081150290604051600060405180830381858888f193505050501515611fb957600080fd5b6121f0565b8291508173ffffffffffffffffffffffffffffffffffffffff166370a08231306000604051602001526040518263ffffffff167c0100000000000000000000000000000000000000000000000000000000028152600401808273ffffffffffffffffffffffffffffffffffffffff1673ffffffffffffffffffffffffffffffffffffffff168152602001915050602060405180830381600087803b151561206457600080fd5b6102c65a03f1151561207557600080fd5b5050506040518051905090508173ffffffffffffffffffffffffffffffffffffffff1663a9059cbb6000809054906101000a900473ffffffffffffffffffffffffffffffffffffffff16836000604051602001526040518363ffffffff167c0100000000000000000000000000000000000000000000000000000000028152600401808373ffffffffffffffffffffffffffffffffffffffff1673ffffffffffffffffffffffffffffffffffffffff16815260200182815260200192505050602060405180830381600087803b151561214d57600080fd5b6102c65a03f1151561215e57600080fd5b50505060405180519050506000809054906101000a900473ffffffffffffffffffffffffffffffffffffffff1673ffffffffffffffffffffffffffffffffffffffff168373ffffffffffffffffffffffffffffffffffffffff167ff931edb47c50b4b4104c187b5814a9aef5f709e17e2ecf9617e860cacade929c836040518082815260200191505060405180910390a35b505050565b600b60019054906101000a900473ffffffffffffffffffffffffffffffffffffffff1681565b6000809054906101000a900473ffffffffffffffffffffffffffffffffffffffff1673ffffffffffffffffffffffffffffffffffffffff163373ffffffffffffffffffffffffffffffffffffffff1614151561227657600080fd5b80600b60006101000a81548160ff02191690831515021790555050565b6000809054906101000a900473ffffffffffffffffffffffffffffffffffffffff1681565b600080600083141561232e578373ffffffffffffffffffffffffffffffffffffffff168573ffffffffffffffffffffffffffffffffffffffff167fddf252ad1be2c89b69c2b068fc378daa952ba7f163c4a11628f55a4df523b3ef856040518082815260200191505060405180910390a3612624565b4360065410151561233e57600080fd5b60008473ffffffffffffffffffffffffffffffffffffffff161415801561239157503073ffffffffffffffffffffffffffffffffffffffff168473ffffffffffffffffffffffffffffffffffffffff1614155b151561239c57600080fd5b6123a6854361117f565b91508282101515156123b757600080fd5b6123e16000809054906101000a900473ffffffffffffffffffffffffffffffffffffffff16610b46565b1561250d576000809054906101000a900473ffffffffffffffffffffffffffffffffffffffff1673ffffffffffffffffffffffffffffffffffffffff16634a3931498686866000604051602001526040518463ffffffff167c0100000000000000000000000000000000000000000000000000000000028152600401808473ffffffffffffffffffffffffffffffffffffffff1673ffffffffffffffffffffffffffffffffffffffff1681526020018373ffffffffffffffffffffffffffffffffffffffff1673ffffffffffffffffffffffffffffffffffffffff1681526020018281526020019350505050602060405180830381600087803b15156124e657600080fd5b6102c65a03f115156124f757600080fd5b50505060405180519050151561250c57600080fd5b5b612557600860008773ffffffffffffffffffffffffffffffffffffffff1673ffffffffffffffffffffffffffffffffffffffff168152602001908152602001600020848403612858565b612561844361117f565b9050808382011015151561257457600080fd5b6125be600860008673ffffffffffffffffffffffffffffffffffffffff1673ffffffffffffffffffffffffffffffffffffffff168152602001908152602001600020848301612858565b8373ffffffffffffffffffffffffffffffffffffffff168573ffffffffffffffffffffffffffffffffffffffff167fddf252ad1be2c89b69c2b068fc378daa952ba7f163c4a11628f55a4df523b3ef856040518082815260200191505060405180910390a35b5050505050565b600081831061263a578161263c565b825b905092915050565b600080600080600086805490501415612660576000935061284f565b85600187805490500381548110151561267557fe5b906000526020600020900160000160009054906101000a90046fffffffffffffffffffffffffffffffff166fffffffffffffffffffffffffffffffff1685101515612713578560018780549050038154811015156126cf57fe5b906000526020600020900160000160109054906101000a90046fffffffffffffffffffffffffffffffff166fffffffffffffffffffffffffffffffff16935061284f565b85600081548110151561272257fe5b906000526020600020900160000160009054906101000a90046fffffffffffffffffffffffffffffffff166fffffffffffffffffffffffffffffffff1685101561276f576000935061284f565b60009250600186805490500391505b8282111561280157600260018484010181151561279757fe5b0490508486828154811015156127a957fe5b906000526020600020900160000160009054906101000a90046fffffffffffffffffffffffffffffffff166fffffffffffffffffffffffffffffffff161115156127f5578092506127fc565b6001810391505b61277e565b858381548110151561280f57fe5b906000526020600020900160000160109054906101000a90046fffffffffffffffffffffffffffffffff166fffffffffffffffffffffffffffffffff1693505b50505092915050565b6000806000848054905014806128be57504384600186805490500381548110151561287f57fe5b906000526020600020900160000160009054906101000a90046fffffffffffffffffffffffffffffffff166fffffffffffffffffffffffffffffffff16105b1561296b57838480548091906001016128d791906129cf565b8154811015156128e357fe5b90600052602060002090019150438260000160006101000a8154816fffffffffffffffffffffffffffffffff02191690836fffffffffffffffffffffffffffffffff160217905550828260000160106101000a8154816fffffffffffffffffffffffffffffffff02191690836fffffffffffffffffffffffffffffffff1602179055506129c9565b83600185805490500381548110151561298057fe5b90600052602060002090019050828160000160106101000a8154816fffffffffffffffffffffffffffffffff02191690836fffffffffffffffffffffffffffffffff1602179055505b50505050565b8154818355818115116129f6578183600052602060002091820191016129f591906129fb565b5b505050565b612a5d91905b80821115612a5957600080820160006101000a8154906fffffffffffffffffffffffffffffffff02191690556000820160106101000a8154906fffffffffffffffffffffffffffffffff021916905550600101612a01565b5090565b905600a165627a7a72305820f6b78c935b8a680cc6e89c518a91aa9fbc27ba9671c3be4448c3306d6f932f510029a165627a7a723058209fe90e22d24566562f4b98b9eb6246f2de578b1ce360d2e02d701eda164d4af60029",
  "devdoc": {
    "methods": {
      "createCloneToken(address,uint256,string,uint8,string,bool)": {
        "params": {
          "_decimalUnits": "Number of decimals of the new token",
          "_parentToken": "Address of the token being cloned",
          "_snapshotBlock": "Block of the parent token that will  determine the initial distribution of the clone token",
          "_tokenName": "Name of the new token",
          "_tokenSymbol": "Token Symbol for the new token",
          "_transfersEnabled": "If true, tokens will be able to be transferred"
        },
        "return": "The address of the new token contract"
      }
    }
  },
  "userdoc": {
    "methods": {
      "createCloneToken(address,uint256,string,uint8,string,bool)": {
        "notice": "Update the DApp by creating a new token with new functionalities  the msg.sender becomes the controller of this clone token"
      }
    }
  }
}